{
  "_format": "hh-sol-artifact-1",
  "contractName": "Auction",
  "sourceName": "contracts/Auction.sol",
  "abi": [
    {
      "inputs": [
        {
          "internalType": "uint256",
          "name": "_biddingTime",
          "type": "uint256"
        },
        {
          "internalType": "string",
          "name": "_auctionItem",
          "type": "string"
        }
      ],
      "stateMutability": "nonpayable",
      "type": "constructor"
    },
    {
      "anonymous": false,
      "inputs": [
        {
          "indexed": false,
          "internalType": "address",
          "name": "winner",
          "type": "address"
        },
        {
          "indexed": false,
          "internalType": "uint256",
          "name": "amount",
          "type": "uint256"
        }
      ],
      "name": "AuctionEnded",
      "type": "event"
    },
    {
      "anonymous": false,
      "inputs": [
        {
          "indexed": false,
          "internalType": "uint256",
          "name": "newEndTime",
          "type": "uint256"
        }
      ],
      "name": "AuctionExtended",
      "type": "event"
    },
    {
      "anonymous": false,
      "inputs": [
        {
          "indexed": true,
          "internalType": "address",
          "name": "bidder",
          "type": "address"
        },
        {
          "indexed": false,
          "internalType": "uint256",
          "name": "amount",
          "type": "uint256"
        }
      ],
      "name": "DepositReturned",
      "type": "event"
    },
    {
      "anonymous": false,
      "inputs": [
        {
          "indexed": true,
          "internalType": "address",
          "name": "bidder",
          "type": "address"
        },
        {
          "indexed": false,
          "internalType": "uint256",
          "name": "amount",
          "type": "uint256"
        },
        {
          "indexed": false,
          "internalType": "uint256",
          "name": "timestamp",
          "type": "uint256"
        }
      ],
      "name": "NewBid",
      "type": "event"
    },
    {
      "inputs": [],
      "name": "auctionEndTime",
      "outputs": [
        {
          "internalType": "uint256",
          "name": "",
          "type": "uint256"
        }
      ],
      "stateMutability": "view",
      "type": "function"
    },
    {
      "inputs": [],
      "name": "auctionEnded",
      "outputs": [
        {
          "internalType": "bool",
          "name": "",
          "type": "bool"
        }
      ],
      "stateMutability": "view",
      "type": "function"
    },
    {
      "inputs": [],
      "name": "auctionItem",
      "outputs": [
        {
          "internalType": "string",
          "name": "",
          "type": "string"
        }
      ],
      "stateMutability": "view",
      "type": "function"
    },
    {
      "inputs": [],
      "name": "bid",
      "outputs": [],
      "stateMutability": "payable",
      "type": "function"
    },
    {
      "inputs": [
        {
          "internalType": "uint256",
          "name": "",
          "type": "uint256"
        }
      ],
      "name": "bids",
      "outputs": [
        {
          "internalType": "address",
          "name": "bidder",
          "type": "address"
        },
        {
          "internalType": "uint256",
          "name": "amount",
          "type": "uint256"
        },
        {
          "internalType": "uint256",
          "name": "timestamp",
          "type": "uint256"
        }
      ],
      "stateMutability": "view",
      "type": "function"
    },
    {
      "inputs": [
        {
          "internalType": "uint256",
          "name": "_newEndTime",
          "type": "uint256"
        }
      ],
      "name": "changeAuctionEndTime",
      "outputs": [],
      "stateMutability": "nonpayable",
      "type": "function"
    },
    {
      "inputs": [],
      "name": "endAuction",
      "outputs": [],
      "stateMutability": "nonpayable",
      "type": "function"
    },
    {
      "inputs": [],
      "name": "getAllBids",
      "outputs": [
        {
          "internalType": "address[]",
          "name": "bidders",
          "type": "address[]"
        },
        {
          "internalType": "uint256[]",
          "name": "amounts",
          "type": "uint256[]"
        },
        {
          "internalType": "uint256[]",
          "name": "timestamps",
          "type": "uint256[]"
        }
      ],
      "stateMutability": "view",
      "type": "function"
    },
    {
      "inputs": [],
      "name": "getAuctionInfo",
      "outputs": [
        {
          "internalType": "string",
          "name": "item",
          "type": "string"
        },
        {
          "internalType": "uint256",
          "name": "endTime",
          "type": "uint256"
        },
        {
          "internalType": "bool",
          "name": "ended",
          "type": "bool"
        },
        {
          "internalType": "address",
          "name": "currentWinner",
          "type": "address"
        },
        {
          "internalType": "uint256",
          "name": "currentHighestBid",
          "type": "uint256"
        },
        {
          "internalType": "uint256",
          "name": "totalBids",
          "type": "uint256"
        }
      ],
      "stateMutability": "view",
      "type": "function"
    },
    {
      "inputs": [],
      "name": "getWinner",
      "outputs": [
        {
          "internalType": "address",
          "name": "winner",
          "type": "address"
        },
        {
          "internalType": "uint256",
          "name": "amount",
          "type": "uint256"
        }
      ],
      "stateMutability": "view",
      "type": "function"
    },
    {
      "inputs": [],
      "name": "highestBid",
      "outputs": [
        {
          "internalType": "uint256",
          "name": "",
          "type": "uint256"
        }
      ],
      "stateMutability": "view",
      "type": "function"
    },
    {
      "inputs": [],
      "name": "highestBidder",
      "outputs": [
        {
          "internalType": "address",
          "name": "",
          "type": "address"
        }
      ],
      "stateMutability": "view",
      "type": "function"
    },
    {
      "inputs": [],
      "name": "owner",
      "outputs": [
        {
          "internalType": "address",
          "name": "",
          "type": "address"
        }
      ],
      "stateMutability": "view",
      "type": "function"
    },
    {
      "inputs": [
        {
          "internalType": "address",
          "name": "",
          "type": "address"
        }
      ],
      "name": "pendingReturns",
      "outputs": [
        {
          "internalType": "uint256",
          "name": "",
          "type": "uint256"
        }
      ],
      "stateMutability": "view",
      "type": "function"
    },
    {
      "inputs": [
        {
          "internalType": "address",
          "name": "",
          "type": "address"
        }
      ],
      "name": "totalDeposits",
      "outputs": [
        {
          "internalType": "uint256",
          "name": "",
          "type": "uint256"
        }
      ],
      "stateMutability": "view",
      "type": "function"
    },
    {
      "inputs": [],
      "name": "withdrawExcess",
      "outputs": [],
      "stateMutability": "nonpayable",
      "type": "function"
    },
    {
      "inputs": [],
      "name": "withdrawProfits",
      "outputs": [],
      "stateMutability": "nonpayable",
      "type": "function"
    },
    {
      "stateMutability": "payable",
      "type": "receive"
    }
  ],
  "bytecode": "0x60806040523480156200001157600080fd5b506040516200182338038062001823833981016040819052620000349162000141565b60008211620000965760405162461bcd60e51b815260206004820152602360248201527f41756374696f6e2074696d65206d75737420626520677265617465722074686160448201526206e20360ec1b60648201526084015b60405180910390fd5b6000815111620000e95760405162461bcd60e51b815260206004820152601460248201527f4d757374207370656369667920616e206974656d00000000000000000000000060448201526064016200008d565b600080546001600160a01b0319163317905562000107824262000221565b6003556005620001188282620002d8565b50506004805460ff1916905550620003a4565b634e487b7160e01b600052604160045260246000fd5b600080604083850312156200015557600080fd5b8251602080850151919350906001600160401b03808211156200017757600080fd5b818601915086601f8301126200018c57600080fd5b815181811115620001a157620001a16200012b565b604051601f8201601f19908116603f01168101908382118183101715620001cc57620001cc6200012b565b816040528281528986848701011115620001e557600080fd5b600093505b82841015620002095784840186015181850187015292850192620001ea565b60008684830101528096505050505050509250929050565b808201808211156200024357634e487b7160e01b600052601160045260246000fd5b92915050565b600181811c908216806200025e57607f821691505b6020821081036200027f57634e487b7160e01b600052602260045260246000fd5b50919050565b601f821115620002d357600081815260208120601f850160051c81016020861015620002ae5750805b601f850160051c820191505b81811015620002cf57828155600101620002ba565b5050505b505050565b81516001600160401b03811115620002f457620002f46200012b565b6200030c8162000305845462000249565b8462000285565b602080601f8311600181146200034457600084156200032b5750858301515b600019600386901b1c1916600185901b178555620002cf565b600085815260208120601f198616915b82811015620003755788860151825594840194600190910190840162000354565b5085821015620003945787850151600019600388901b60f8161c191681555b5050505050600190811b01905550565b61146f80620003b46000396000f3fe6080604052600436106101025760003560e01c80638da5cb5b11610095578063c2c042ca11610064578063c2c042ca1461033d578063d57bde791461035f578063d94a350514610375578063e94032561461039c578063fe67a54b146103c957600080fd5b80638da5cb5b1461028d5780638e7ea5b2146102c557806391f9015714610308578063c264a0631461032857600080fd5b80634423c5f1116100d15780634423c5f1146101e45780634b449cba14610229578063864333741461023f5780638d0f6da31461026957600080fd5b80631998aeef1461016557806326b387bb1461016f57806338b21049146101af57806339913e09146101cf57600080fd5b366101605760405162461bcd60e51b8152602060048201526024808201527f557365207468652062696428292066756e6374696f6e20746f20706c616365206044820152636269647360e01b60648201526084015b60405180910390fd5b600080fd5b61016d6103de565b005b34801561017b57600080fd5b5061019c61018a366004611160565b60066020526000908152604090205481565b6040519081526020015b60405180910390f35b3480156101bb57600080fd5b5061016d6101ca366004611190565b610774565b3480156101db57600080fd5b5061016d61087b565b3480156101f057600080fd5b506102046101ff366004611190565b6109d9565b604080516001600160a01b0390941684526020840192909252908201526060016101a6565b34801561023557600080fd5b5061019c60035481565b34801561024b57600080fd5b506004546102599060ff1681565b60405190151581526020016101a6565b34801561027557600080fd5b5061027e610a16565b6040516101a6939291906111e4565b34801561029957600080fd5b506000546102ad906001600160a01b031681565b6040516001600160a01b0390911681526020016101a6565b3480156102d157600080fd5b506102e96001546002546001600160a01b0390911691565b604080516001600160a01b0390931683526020830191909152016101a6565b34801561031457600080fd5b506001546102ad906001600160a01b031681565b34801561033457600080fd5b5061016d610bfc565b34801561034957600080fd5b50610352610d41565b6040516101a6919061129f565b34801561036b57600080fd5b5061019c60025481565b34801561038157600080fd5b5061038a610dcf565b6040516101a6969594939291906112b2565b3480156103a857600080fd5b5061019c6103b7366004611160565b60076020526000908152604090205481565b3480156103d557600080fd5b5061016d610ea2565b600354421080156103f2575060045460ff16155b6104365760405162461bcd60e51b8152602060048201526015602482015274151a1948185d58dd1a5bdb881a185cc8195b991959605a1b6044820152606401610157565b600034116104865760405162461bcd60e51b815260206004820152601a60248201527f426964206d7573742062652067726561746572207468616e20300000000000006044820152606401610157565b600060646005600254610499919061130d565b6104a3919061132a565b6002546104b0919061134c565b90508034101561051a5760405162461bcd60e51b815260206004820152602f60248201527f426964206d757374206265206174206c6561737420352520686967686572207460448201526e1a185b8818dd5c9c995b9d08189a59608a1b6064820152608401610157565b33600090815260066020526040812054610534903461134c565b9050818110156105865760405162461bcd60e51b815260206004820152601b60248201527f546f74616c20626964206973206e6f742073756666696369656e7400000000006044820152606401610157565b33600090815260076020526040812080543492906105a590849061134c565b90915550506001546001600160a01b0316156105ee576002546001546001600160a01b0316600090815260066020526040812080549091906105e890849061134c565b90915550505b60018054336001600160a01b0319918216811783556002849055600081815260066020908152604080832083905580516060810182529384529083018681524291840182815260088054978801815590935292517ff3f7a9fe364faab93b216da50a3214154f22a0a2b415b23a84c8169e8b636ee3600396870290810180549096166001600160a01b039092169190911790945591517ff3f7a9fe364faab93b216da50a3214154f22a0a2b415b23a84c8169e8b636ee4840155517ff3f7a9fe364faab93b216da50a3214154f22a0a2b415b23a84c8169e8b636ee5909201919091559054610258916106e09161135f565b1161073557610258600360008282546106f9919061134c565b90915550506003546040519081527fc2b459809119087ca9d2bc10dea53a51b7d848b1a11075db037bdca58292c3e89060200160405180910390a15b6040805182815242602082015233917f87f5b2fe112bf269d30fb8ca9dc0bde0afd0cc39258e13fafd75fe794795bf0e91015b60405180910390a25050565b6000546001600160a01b0316331461079e5760405162461bcd60e51b815260040161015790611372565b60045460ff16156107f15760405162461bcd60e51b815260206004820152601d60248201527f5468652061756374696f6e2068617320616c726561647920656e6465640000006044820152606401610157565b4281116108405760405162461bcd60e51b815260206004820152601e60248201527f4e65772074696d65206d75737420626520696e207468652066757475726500006044820152606401610157565b60038190556040518181527fc2b459809119087ca9d2bc10dea53a51b7d848b1a11075db037bdca58292c3e89060200160405180910390a150565b6000546001600160a01b031633146108a55760405162461bcd60e51b815260040161015790611372565b60045460ff166108f75760405162461bcd60e51b815260206004820152601b60248201527f5468652061756374696f6e206d757374206861766520656e64656400000000006044820152606401610157565b478061093c5760405162461bcd60e51b81526020600482015260146024820152734e6f2066756e647320746f20776974686472617760601b6044820152606401610157565b600080546040516001600160a01b039091169083908381818185875af1925050503d8060008114610989576040519150601f19603f3d011682016040523d82523d6000602084013e61098e565b606091505b50509050806109d55760405162461bcd60e51b81526020600482015260136024820152724572726f722073656e64696e672066756e647360681b6044820152606401610157565b5050565b600881815481106109e957600080fd5b60009182526020909120600390910201805460018201546002909201546001600160a01b03909116925083565b600854606090819081908067ffffffffffffffff811115610a3957610a396113ba565b604051908082528060200260200182016040528015610a62578160200160208202803683370190505b5093508067ffffffffffffffff811115610a7e57610a7e6113ba565b604051908082528060200260200182016040528015610aa7578160200160208202803683370190505b5092508067ffffffffffffffff811115610ac357610ac36113ba565b604051908082528060200260200182016040528015610aec578160200160208202803683370190505b50915060005b81811015610bf55760088181548110610b0d57610b0d6113d0565b600091825260209091206003909102015485516001600160a01b0390911690869083908110610b3e57610b3e6113d0565b60200260200101906001600160a01b031690816001600160a01b03168152505060088181548110610b7157610b716113d0565b906000526020600020906003020160010154848281518110610b9557610b956113d0565b60200260200101818152505060088181548110610bb457610bb46113d0565b906000526020600020906003020160020154838281518110610bd857610bd86113d0565b602090810291909101015280610bed816113e6565b915050610af2565b5050909192565b3360009081526006602052604090205480610c505760405162461bcd60e51b81526020600482015260146024820152734e6f2066756e647320746f20776974686472617760601b6044820152606401610157565b336000908152600660209081526040808320839055600790915281208054839290610c7c90849061135f565b9091555050604051600090339083908381818185875af1925050503d8060008114610cc3576040519150601f19603f3d011682016040523d82523d6000602084013e610cc8565b606091505b5050905080610d0f5760405162461bcd60e51b81526020600482015260136024820152724572726f722073656e64696e672066756e647360681b6044820152606401610157565b60405182815233907fa09244c122a83074363635dc89ce0098166c2f74827960ff64a7c8e6ad1c57a290602001610768565b60058054610d4e906113ff565b80601f0160208091040260200160405190810160405280929190818152602001828054610d7a906113ff565b8015610dc75780601f10610d9c57610100808354040283529160200191610dc7565b820191906000526020600020905b815481529060010190602001808311610daa57829003601f168201915b505050505081565b6003546004546001546002546008546005805460609660009687968796879687969560ff909416936001600160a01b03909316928690610e0e906113ff565b80601f0160208091040260200160405190810160405280929190818152602001828054610e3a906113ff565b8015610e875780601f10610e5c57610100808354040283529160200191610e87565b820191906000526020600020905b815481529060010190602001808311610e6a57829003601f168201915b50505050509550955095509550955095509550909192939495565b60035442101580610eb5575060045460ff165b610f015760405162461bcd60e51b815260206004820152601d60248201527f5468652061756374696f6e20686173206e6f7420656e646564207965740000006044820152606401610157565b60045460ff1615610f635760405162461bcd60e51b815260206004820152602660248201527f5468652061756374696f6e2068617320616c7265616479206265656e2066696e604482015265185b1a5e995960d21b6064820152608401610157565b6004805460ff1916600190811790915554600254604080516001600160a01b03909316835260208301919091527fdaec4582d5d9595688c8c98545fdd1c696d41c6aeaeb636737e84ed2f5c00eda910160405180910390a1610fc3610fc5565b565b60005b60085481101561115d57600060088281548110610fe757610fe76113d0565b60009182526020909120600390910201546001546001600160a01b0391821692501681148061102c57506001600160a01b038116600090815260076020526040902054155b15611037575061114b565b6001600160a01b03811660009081526007602052604081205490606461105e60028461130d565b611068919061132a565b90506000611076828461135f565b6001600160a01b0385166000908152600760209081526040808320839055600690915281205590508015611146576000846001600160a01b03168260405160006040518083038185875af1925050503d80600081146110f1576040519150601f19603f3d011682016040523d82523d6000602084013e6110f6565b606091505b50509050801561114457846001600160a01b03167fa09244c122a83074363635dc89ce0098166c2f74827960ff64a7c8e6ad1c57a28360405161113b91815260200190565b60405180910390a25b505b505050505b80611155816113e6565b915050610fc8565b50565b60006020828403121561117257600080fd5b81356001600160a01b038116811461118957600080fd5b9392505050565b6000602082840312156111a257600080fd5b5035919050565b600081518084526020808501945080840160005b838110156111d9578151875295820195908201906001016111bd565b509495945050505050565b606080825284519082018190526000906020906080840190828801845b828110156112265781516001600160a01b031684529284019290840190600101611201565b5050508381038285015261123a81876111a9565b915050828103604084015261124f81856111a9565b9695505050505050565b6000815180845260005b8181101561127f57602081850181015186830182015201611263565b506000602082860101526020601f19601f83011685010191505092915050565b6020815260006111896020830184611259565b60c0815260006112c560c0830189611259565b60208301979097525093151560408501526001600160a01b03929092166060840152608083015260a090910152919050565b634e487b7160e01b600052601160045260246000fd5b8082028115828204841417611324576113246112f7565b92915050565b60008261134757634e487b7160e01b600052601260045260246000fd5b500490565b80820180821115611324576113246112f7565b81810381811115611324576113246112f7565b60208082526028908201527f4f6e6c7920746865206f776e65722063616e2065786563757465207468697320604082015267333ab731ba34b7b760c11b606082015260800190565b634e487b7160e01b600052604160045260246000fd5b634e487b7160e01b600052603260045260246000fd5b6000600182016113f8576113f86112f7565b5060010190565b600181811c9082168061141357607f821691505b60208210810361143357634e487b7160e01b600052602260045260246000fd5b5091905056fea2646970667358221220d2577cc1e8b041ec2444d3dd0e9023f5f4fbd537c180e5558a796e4d4a9b21e164736f6c63430008130033",
  "linkReferences": {},
  "deployedLinkReferences": {}
}