{
  "_format": "hh-sol-artifact-1",
  "contractName": "Auction",
  "sourceName": "contracts/Auction.sol",
  "abi": [
    {
      "inputs": [
        {
          "internalType": "uint256",
          "name": "_biddingTime",
          "type": "uint256"
        },
        {
          "internalType": "string",
          "name": "_auctionItem",
          "type": "string"
        }
      ],
      "stateMutability": "nonpayable",
      "type": "constructor"
    },
    {
      "anonymous": false,
      "inputs": [
        {
          "indexed": false,
          "internalType": "address",
          "name": "winner",
          "type": "address"
        },
        {
          "indexed": false,
          "internalType": "uint256",
          "name": "amount",
          "type": "uint256"
        }
      ],
      "name": "AuctionEnded",
      "type": "event"
    },
    {
      "anonymous": false,
      "inputs": [
        {
          "indexed": false,
          "internalType": "uint256",
          "name": "newEndTime",
          "type": "uint256"
        }
      ],
      "name": "AuctionExtended",
      "type": "event"
    },
    {
      "anonymous": false,
      "inputs": [
        {
          "indexed": true,
          "internalType": "address",
          "name": "bidder",
          "type": "address"
        },
        {
          "indexed": false,
          "internalType": "uint256",
          "name": "amount",
          "type": "uint256"
        }
      ],
      "name": "DepositReturned",
      "type": "event"
    },
    {
      "anonymous": false,
      "inputs": [
        {
          "indexed": true,
          "internalType": "address",
          "name": "bidder",
          "type": "address"
        },
        {
          "indexed": false,
          "internalType": "uint256",
          "name": "amount",
          "type": "uint256"
        },
        {
          "indexed": false,
          "internalType": "uint256",
          "name": "timestamp",
          "type": "uint256"
        }
      ],
      "name": "NewBid",
      "type": "event"
    },
    {
      "inputs": [],
      "name": "auctionEndTime",
      "outputs": [
        {
          "internalType": "uint256",
          "name": "",
          "type": "uint256"
        }
      ],
      "stateMutability": "view",
      "type": "function"
    },
    {
      "inputs": [],
      "name": "auctionEnded",
      "outputs": [
        {
          "internalType": "bool",
          "name": "",
          "type": "bool"
        }
      ],
      "stateMutability": "view",
      "type": "function"
    },
    {
      "inputs": [],
      "name": "auctionItem",
      "outputs": [
        {
          "internalType": "string",
          "name": "",
          "type": "string"
        }
      ],
      "stateMutability": "view",
      "type": "function"
    },
    {
      "inputs": [],
      "name": "bid",
      "outputs": [],
      "stateMutability": "payable",
      "type": "function"
    },
    {
      "inputs": [
        {
          "internalType": "uint256",
          "name": "",
          "type": "uint256"
        }
      ],
      "name": "bids",
      "outputs": [
        {
          "internalType": "address",
          "name": "bidder",
          "type": "address"
        },
        {
          "internalType": "uint256",
          "name": "amount",
          "type": "uint256"
        },
        {
          "internalType": "uint256",
          "name": "timestamp",
          "type": "uint256"
        }
      ],
      "stateMutability": "view",
      "type": "function"
    },
    {
      "inputs": [],
      "name": "endAuction",
      "outputs": [],
      "stateMutability": "nonpayable",
      "type": "function"
    },
    {
      "inputs": [],
      "name": "getAllBids",
      "outputs": [
        {
          "internalType": "address[]",
          "name": "bidders",
          "type": "address[]"
        },
        {
          "internalType": "uint256[]",
          "name": "amounts",
          "type": "uint256[]"
        },
        {
          "internalType": "uint256[]",
          "name": "timestamps",
          "type": "uint256[]"
        }
      ],
      "stateMutability": "view",
      "type": "function"
    },
    {
      "inputs": [],
      "name": "getAuctionInfo",
      "outputs": [
        {
          "internalType": "string",
          "name": "item",
          "type": "string"
        },
        {
          "internalType": "uint256",
          "name": "endTime",
          "type": "uint256"
        },
        {
          "internalType": "bool",
          "name": "ended",
          "type": "bool"
        },
        {
          "internalType": "address",
          "name": "currentWinner",
          "type": "address"
        },
        {
          "internalType": "uint256",
          "name": "currentHighestBid",
          "type": "uint256"
        },
        {
          "internalType": "uint256",
          "name": "totalBids",
          "type": "uint256"
        }
      ],
      "stateMutability": "view",
      "type": "function"
    },
    {
      "inputs": [],
      "name": "getWinner",
      "outputs": [
        {
          "internalType": "address",
          "name": "winner",
          "type": "address"
        },
        {
          "internalType": "uint256",
          "name": "amount",
          "type": "uint256"
        }
      ],
      "stateMutability": "view",
      "type": "function"
    },
    {
      "inputs": [],
      "name": "highestBid",
      "outputs": [
        {
          "internalType": "uint256",
          "name": "",
          "type": "uint256"
        }
      ],
      "stateMutability": "view",
      "type": "function"
    },
    {
      "inputs": [],
      "name": "highestBidder",
      "outputs": [
        {
          "internalType": "address",
          "name": "",
          "type": "address"
        }
      ],
      "stateMutability": "view",
      "type": "function"
    },
    {
      "inputs": [],
      "name": "owner",
      "outputs": [
        {
          "internalType": "address",
          "name": "",
          "type": "address"
        }
      ],
      "stateMutability": "view",
      "type": "function"
    },
    {
      "inputs": [
        {
          "internalType": "address",
          "name": "",
          "type": "address"
        }
      ],
      "name": "pendingReturns",
      "outputs": [
        {
          "internalType": "uint256",
          "name": "",
          "type": "uint256"
        }
      ],
      "stateMutability": "view",
      "type": "function"
    },
    {
      "inputs": [
        {
          "internalType": "address",
          "name": "",
          "type": "address"
        }
      ],
      "name": "totalDeposits",
      "outputs": [
        {
          "internalType": "uint256",
          "name": "",
          "type": "uint256"
        }
      ],
      "stateMutability": "view",
      "type": "function"
    },
    {
      "inputs": [],
      "name": "withdrawExcess",
      "outputs": [],
      "stateMutability": "nonpayable",
      "type": "function"
    },
    {
      "inputs": [],
      "name": "withdrawProfits",
      "outputs": [],
      "stateMutability": "nonpayable",
      "type": "function"
    },
    {
      "stateMutability": "payable",
      "type": "receive"
    }
  ],
  "bytecode": "0x60806040523480156200001157600080fd5b506040516200171b3803806200171b833981016040819052620000349162000141565b60008211620000965760405162461bcd60e51b815260206004820152602360248201527f41756374696f6e2074696d65206d75737420626520677265617465722074686160448201526206e20360ec1b60648201526084015b60405180910390fd5b6000815111620000e95760405162461bcd60e51b815260206004820152601460248201527f4d757374207370656369667920616e206974656d00000000000000000000000060448201526064016200008d565b600080546001600160a01b0319163317905562000107824262000221565b6003556005620001188282620002d8565b50506004805460ff1916905550620003a4565b634e487b7160e01b600052604160045260246000fd5b600080604083850312156200015557600080fd5b8251602080850151919350906001600160401b03808211156200017757600080fd5b818601915086601f8301126200018c57600080fd5b815181811115620001a157620001a16200012b565b604051601f8201601f19908116603f01168101908382118183101715620001cc57620001cc6200012b565b816040528281528986848701011115620001e557600080fd5b600093505b82841015620002095784840186015181850187015292850192620001ea565b60008684830101528096505050505050509250929050565b808201808211156200024357634e487b7160e01b600052601160045260246000fd5b92915050565b600181811c908216806200025e57607f821691505b6020821081036200027f57634e487b7160e01b600052602260045260246000fd5b50919050565b601f821115620002d357600081815260208120601f850160051c81016020861015620002ae5750805b601f850160051c820191505b81811015620002cf57828155600101620002ba565b5050505b505050565b81516001600160401b03811115620002f457620002f46200012b565b6200030c8162000305845462000249565b8462000285565b602080601f8311600181146200034457600084156200032b5750858301515b600019600386901b1c1916600185901b178555620002cf565b600085815260208120601f198616915b82811015620003755788860151825594840194600190910190840162000354565b5085821015620003945787850151600019600388901b60f8161c191681555b5050505050600190811b01905550565b61136780620003b46000396000f3fe6080604052600436106100f75760003560e01c80638e7ea5b21161008a578063d57bde7911610059578063d57bde7914610334578063d94a35051461034a578063e940325614610371578063fe67a54b1461039e57600080fd5b80638e7ea5b21461029a57806391f90157146102dd578063c264a063146102fd578063c2c042ca1461031257600080fd5b80634b449cba116100c65780634b449cba146101fe57806386433374146102145780638d0f6da31461023e5780638da5cb5b1461026257600080fd5b80631998aeef1461015a57806326b387bb1461016457806339913e09146101a45780634423c5f1146101b957600080fd5b366101555760405162461bcd60e51b8152602060048201526024808201527f557365207468652062696428292066756e6374696f6e20746f20706c616365206044820152636269647360e01b60648201526084015b60405180910390fd5b600080fd5b6101626103b3565b005b34801561017057600080fd5b5061019161017f366004611058565b60066020526000908152604090205481565b6040519081526020015b60405180910390f35b3480156101b057600080fd5b50610162610749565b3480156101c557600080fd5b506101d96101d4366004611088565b6108a7565b604080516001600160a01b03909416845260208401929092529082015260600161019b565b34801561020a57600080fd5b5061019160035481565b34801561022057600080fd5b5060045461022e9060ff1681565b604051901515815260200161019b565b34801561024a57600080fd5b506102536108e4565b60405161019b939291906110dc565b34801561026e57600080fd5b50600054610282906001600160a01b031681565b6040516001600160a01b03909116815260200161019b565b3480156102a657600080fd5b506102be6001546002546001600160a01b0390911691565b604080516001600160a01b03909316835260208301919091520161019b565b3480156102e957600080fd5b50600154610282906001600160a01b031681565b34801561030957600080fd5b50610162610aca565b34801561031e57600080fd5b50610327610c0f565b60405161019b9190611197565b34801561034057600080fd5b5061019160025481565b34801561035657600080fd5b5061035f610c9d565b60405161019b969594939291906111aa565b34801561037d57600080fd5b5061019161038c366004611058565b60076020526000908152604090205481565b3480156103aa57600080fd5b50610162610d70565b600354421080156103c7575060045460ff16155b61040b5760405162461bcd60e51b8152602060048201526015602482015274151a1948185d58dd1a5bdb881a185cc8195b991959605a1b604482015260640161014c565b6000341161045b5760405162461bcd60e51b815260206004820152601a60248201527f426964206d7573742062652067726561746572207468616e2030000000000000604482015260640161014c565b60006064600560025461046e9190611205565b6104789190611222565b6002546104859190611244565b9050803410156104ef5760405162461bcd60e51b815260206004820152602f60248201527f426964206d757374206265206174206c6561737420352520686967686572207460448201526e1a185b8818dd5c9c995b9d08189a59608a1b606482015260840161014c565b336000908152600660205260408120546105099034611244565b90508181101561055b5760405162461bcd60e51b815260206004820152601b60248201527f546f74616c20626964206973206e6f742073756666696369656e740000000000604482015260640161014c565b336000908152600760205260408120805434929061057a908490611244565b90915550506001546001600160a01b0316156105c3576002546001546001600160a01b0316600090815260066020526040812080549091906105bd908490611244565b90915550505b60018054336001600160a01b0319918216811783556002849055600081815260066020908152604080832083905580516060810182529384529083018681524291840182815260088054978801815590935292517ff3f7a9fe364faab93b216da50a3214154f22a0a2b415b23a84c8169e8b636ee3600396870290810180549096166001600160a01b039092169190911790945591517ff3f7a9fe364faab93b216da50a3214154f22a0a2b415b23a84c8169e8b636ee4840155517ff3f7a9fe364faab93b216da50a3214154f22a0a2b415b23a84c8169e8b636ee5909201919091559054610258916106b591611257565b1161070a57610258600360008282546106ce9190611244565b90915550506003546040519081527fc2b459809119087ca9d2bc10dea53a51b7d848b1a11075db037bdca58292c3e89060200160405180910390a15b6040805182815242602082015233917f87f5b2fe112bf269d30fb8ca9dc0bde0afd0cc39258e13fafd75fe794795bf0e91015b60405180910390a25050565b6000546001600160a01b031633146107735760405162461bcd60e51b815260040161014c9061126a565b60045460ff166107c55760405162461bcd60e51b815260206004820152601b60248201527f5468652061756374696f6e206d757374206861766520656e6465640000000000604482015260640161014c565b478061080a5760405162461bcd60e51b81526020600482015260146024820152734e6f2066756e647320746f20776974686472617760601b604482015260640161014c565b600080546040516001600160a01b039091169083908381818185875af1925050503d8060008114610857576040519150601f19603f3d011682016040523d82523d6000602084013e61085c565b606091505b50509050806108a35760405162461bcd60e51b81526020600482015260136024820152724572726f722073656e64696e672066756e647360681b604482015260640161014c565b5050565b600881815481106108b757600080fd5b60009182526020909120600390910201805460018201546002909201546001600160a01b03909116925083565b600854606090819081908067ffffffffffffffff811115610907576109076112b2565b604051908082528060200260200182016040528015610930578160200160208202803683370190505b5093508067ffffffffffffffff81111561094c5761094c6112b2565b604051908082528060200260200182016040528015610975578160200160208202803683370190505b5092508067ffffffffffffffff811115610991576109916112b2565b6040519080825280602002602001820160405280156109ba578160200160208202803683370190505b50915060005b81811015610ac357600881815481106109db576109db6112c8565b600091825260209091206003909102015485516001600160a01b0390911690869083908110610a0c57610a0c6112c8565b60200260200101906001600160a01b031690816001600160a01b03168152505060088181548110610a3f57610a3f6112c8565b906000526020600020906003020160010154848281518110610a6357610a636112c8565b60200260200101818152505060088181548110610a8257610a826112c8565b906000526020600020906003020160020154838281518110610aa657610aa66112c8565b602090810291909101015280610abb816112de565b9150506109c0565b5050909192565b3360009081526006602052604090205480610b1e5760405162461bcd60e51b81526020600482015260146024820152734e6f2066756e647320746f20776974686472617760601b604482015260640161014c565b336000908152600660209081526040808320839055600790915281208054839290610b4a908490611257565b9091555050604051600090339083908381818185875af1925050503d8060008114610b91576040519150601f19603f3d011682016040523d82523d6000602084013e610b96565b606091505b5050905080610bdd5760405162461bcd60e51b81526020600482015260136024820152724572726f722073656e64696e672066756e647360681b604482015260640161014c565b60405182815233907fa09244c122a83074363635dc89ce0098166c2f74827960ff64a7c8e6ad1c57a29060200161073d565b60058054610c1c906112f7565b80601f0160208091040260200160405190810160405280929190818152602001828054610c48906112f7565b8015610c955780601f10610c6a57610100808354040283529160200191610c95565b820191906000526020600020905b815481529060010190602001808311610c7857829003601f168201915b505050505081565b6003546004546001546002546008546005805460609660009687968796879687969560ff909416936001600160a01b03909316928690610cdc906112f7565b80601f0160208091040260200160405190810160405280929190818152602001828054610d08906112f7565b8015610d555780601f10610d2a57610100808354040283529160200191610d55565b820191906000526020600020905b815481529060010190602001808311610d3857829003601f168201915b50505050509550955095509550955095509550909192939495565b6000546001600160a01b03163314610d9a5760405162461bcd60e51b815260040161014c9061126a565b60035442101580610dad575060045460ff165b610df95760405162461bcd60e51b815260206004820152601d60248201527f5468652061756374696f6e20686173206e6f7420656e64656420796574000000604482015260640161014c565b60045460ff1615610e5b5760405162461bcd60e51b815260206004820152602660248201527f5468652061756374696f6e2068617320616c7265616479206265656e2066696e604482015265185b1a5e995960d21b606482015260840161014c565b6004805460ff1916600190811790915554600254604080516001600160a01b03909316835260208301919091527fdaec4582d5d9595688c8c98545fdd1c696d41c6aeaeb636737e84ed2f5c00eda910160405180910390a1610ebb610ebd565b565b60005b60085481101561105557600060088281548110610edf57610edf6112c8565b60009182526020909120600390910201546001546001600160a01b03918216925016811480610f2457506001600160a01b038116600090815260076020526040902054155b15610f2f5750611043565b6001600160a01b038116600090815260076020526040812054906064610f56600284611205565b610f609190611222565b90506000610f6e8284611257565b6001600160a01b038516600090815260076020908152604080832083905560069091528120559050801561103e576000846001600160a01b03168260405160006040518083038185875af1925050503d8060008114610fe9576040519150601f19603f3d011682016040523d82523d6000602084013e610fee565b606091505b50509050801561103c57846001600160a01b03167fa09244c122a83074363635dc89ce0098166c2f74827960ff64a7c8e6ad1c57a28360405161103391815260200190565b60405180910390a25b505b505050505b8061104d816112de565b915050610ec0565b50565b60006020828403121561106a57600080fd5b81356001600160a01b038116811461108157600080fd5b9392505050565b60006020828403121561109a57600080fd5b5035919050565b600081518084526020808501945080840160005b838110156110d1578151875295820195908201906001016110b5565b509495945050505050565b606080825284519082018190526000906020906080840190828801845b8281101561111e5781516001600160a01b0316845292840192908401906001016110f9565b5050508381038285015261113281876110a1565b915050828103604084015261114781856110a1565b9695505050505050565b6000815180845260005b818110156111775760208185018101518683018201520161115b565b506000602082860101526020601f19601f83011685010191505092915050565b6020815260006110816020830184611151565b60c0815260006111bd60c0830189611151565b60208301979097525093151560408501526001600160a01b03929092166060840152608083015260a090910152919050565b634e487b7160e01b600052601160045260246000fd5b808202811582820484141761121c5761121c6111ef565b92915050565b60008261123f57634e487b7160e01b600052601260045260246000fd5b500490565b8082018082111561121c5761121c6111ef565b8181038181111561121c5761121c6111ef565b60208082526028908201527f4f6e6c7920746865206f776e65722063616e2065786563757465207468697320604082015267333ab731ba34b7b760c11b606082015260800190565b634e487b7160e01b600052604160045260246000fd5b634e487b7160e01b600052603260045260246000fd5b6000600182016112f0576112f06111ef565b5060010190565b600181811c9082168061130b57607f821691505b60208210810361132b57634e487b7160e01b600052602260045260246000fd5b5091905056fea26469706673582212209c9fc5d79e7963590651c6ede92129eeebc43eabae692134367d1ea43510ffde64736f6c63430008130033",
  "linkReferences": {},
  "deployedLinkReferences": {}
}